:08000000803102288731F42F42
:100B360022000D168D160D178D17080022000D12B6
:100B46008D120D138D1308000030F000F100853171
:100B5600E1258531080022000E161430890BB12DCF
:100B6600003222000E12080022008E161430890B65
:100B7600BA2D003222008E121430890BC02D00329D
:100B860008003830210099000E128E120E138E13B3
:100B96000D128D120D138D1322008E1708002200E0
:100BA6008E1385319B258531FA300032890BD82D7D
:100BB6008531A125853122008E1708007108200095
:100BC600A1007008A0007108A3007008A2007108B7
:100BD600A5007008A4007108A7007008A600080008
:100BE60070087104031DF82DF92DFB2D22000D163A
:100BF60070037104031D002E012E032E22008D1694
:100C0600023070067104031D092E0A2E0C2E2200D6
:100C16000D17033070067104031D122E132E152EA8
:100C260022008D170800F501F6017108F30070081F
:100C3600F200750A202EF336F20C890B1E2E72086E
:100C46000139F400F40EF40DF40D22000E087406BA
:100C5600BF3974068E008531B72586310130F50718
:100C66000030F63D7608803AF20080307202031DAD
:100C76003E2E08307502031C412E422E182E853159
:100C8600AE2586310800FF302000A000FF30A1000D
:100C96002108F1002008F00086311626863103303F
:100CA600F0000030F1008531F32586311130F70070
:100CB6003A30890B5C2EF70B5C2E00328531A1256C
:100CC60086310230F0000030F1008531F32586319F
:100CD6001130F7003A30890B6E2EF70B6E2E00326C
:100CE6008531A12586310130F0000030F1008531D3
:100CF600F32586311130F7003A30890B802EF70B39
:100D0600802E00328531A12586310030F000F100B9
:100D16008531F32586311130F7003A30890B912E53
:100D2600F70B912E00320800FF302000A000FF30A4
:100D3600A1002108F1002008F00086311626863130
:100D46000030F000F1008531F32586311130F700CF
:100D56003A30890BAC2EF70BAC2E00328531A1252B
:100D660086310130F0000030F1008531F3258631FF
:100D76001130F7003A30890BBE2EF70BBE2E00322B
:100D86008531A12586310230F0000030F100853131
:100D9600F32586311130F7003A30890BD02EF70B48
:100DA600D02E00328531A12586310330F000003087
:100DB600F1008531F32586311130F7003A30890B81
:100DC600E22EF70BE22E003208008531A725863188
:100DD60088302000A0000030A1004430A20000307E
:100DE600A3002230A4000030A5001130A600003078
:100DF600A7002708F1002608F0008631162686315E
:100E060085319B2586311130F7003A30890B092F41
:100E1600F70B092F003220002508F1002408F00006
:100E26008631162686311130F7003A30890B192F94
:100E3600F70B192F003220002308F1002208F000DA
:100E46008631162686311130F7003A30890B292F64
:100E5600F70B292F003220002108F1002008F000AE
:100E66008631162686311130F7003A30890B392F34
:100E7600F70B392F003208008531A72587318830D6
:100E86002000A0000030A1004430A2000030A300E2
:100E96002230A4000030A5001130A6000030A700C3
:100EA6002108F1002008F0008631162687318531A9
:100EB6009B2587311130F7003A30890B602FF70BED
:100EC600602F003220002308F1002208F00086314E
:100ED600162687311130F7003A30890B702FF70B41
:100EE600702F003220002508F1002408F00086311A
:100EF600162687311130F7003A30890B802FF70B11
:100F0600802F003220002708F1002608F0008631E5
:100F1600162687311130F7003A30890B902FF70BE0
:100F2600902F003208008531C42587318531D225BE
:100F36008731F901FA018631972687311130F80099
:100F46003A30890BA42FF80BA42F0032863146269F
:100F560087311130F8003A30890BAF2FF80BAF2FDD
:100F660000320130F9070030FA3D7A08803AF8007D
:100F760080307802031DC12F05307902031CC42F6F
:100F8600C52F9E2F8531D2258731FB01FC01873184
:100F96003F2787311130F8003A30890BD02FF80BF4
:100FA600D02F00328631E82687311130F8003A30EA
:100FB600890BDB2FF80BDB2F00320130FB070030EB
:100FC600FC3D7C08803AF80080307802031DED2F46
:100FD60005307B02031CF02FF12FCA2F992F803189
:100FE60002282000A001A101A201A301A401A501DC
:0A0FF600A601A70120008731962F05
:020000040001F9
:04000E00A40FFF1824
:00000001FF
